:020000040100F9
:1010000000000120011400010000000000000000A9
:1010100000000000000000000000000000000000D0
:1010200000000000000000000000000000000000C0
:10103000000000000000000000000000A5160001F4
:10104000B3160001C1160001CF160001DD16000124
:10105000EB160001F9160001071700011517000132
:1010600023170001311700013F1700014D17000140
:101070005B17000169170001771700018517000150
:1010800093170001A1170001AF170001BD17000160
:10109000CB170001D9170001E7170001F517000170
:1010A00003180001111800011F1800012D1800017C
:1010B000000000003B1800010000000000000000DC
:1010C00049180001571800010000000065180001D0
:1010D00073180001811800018F1800019D1800018C
:1010E000AB18000100000000B9180001000000006A
:1010F0000000000000000000C7180001D518000122
:1011000000000000E3180001F1180001FF180001C1
:1011100000000000000000000000000000000000CF
:1011200000000000000000000000000000000000BF
:1011300000000000000000000000000000000000AF
:10114000000000000000000000000000000000009F
:1014000080B582B000AF184B7B60184B3B607A68A8
:101410003B689A420ED009E07B681A683B681A6004
:101420007B6804337B603B6804333B603B68104A55
:101430009342F1D30F4B3B6005E03B6800221A60FA
:101440003B6804333B603B680B4A9342F5D30B4B3C
:101450001A680A490A4B13430B6000F013F800BFE7
:101460000837BD4680BD00BF0C1A000100000020F7
:1014700000000020000000200000002000F00140DB
:101480005A390F2080B598B000AF804B804A9A60DF
:10149000804B9B687F4A43F0005393607E4800F086
:1014A00035FA7E4B4FF48852C3F8A0237B4B0022C1
:1014B000C3F8A023794B0122C3F83823774B0122CC
:1014C000C3F84023754B0122C3F84823734B012214
:1014D000C3F85023714B0122C3F858236F4A07F118
:1014E000280313606D4A3B4693606C4B24229A613B
:1014F0006A4B0A22DA61694B694A1A64674B042213
:101500005A64654B01221A6000BF634BDB6F03F026
:101510000103002BF9D1604B5B6903F00103002B41
:10152000F9D05D4B1B68312B4FD15B4B22221A60E7
:1015300000BF594BDB6F03F00103002BF9D10023EF
:10154000FB650AE0FA6DFB6D9B0007F160010B443F
:1015500043F8382CFB6D0133FB65FB6D092BF1DD86
:101560004E4B0122C3F898234C4B40F20112C3F8B2
:10157000A023494B33221A6000BF474BDB6F03F0B7
:101580000103002BF9D100BF444BD3F8C83203F05C
:101590000103002BF8D00023BB6513E0BB6D9B005B
:1015A00007F16002134453F8603C3B4ADBB213601E
:1015B00000BF394BDB6F03F00103002BF9D1BB6D8A
:1015C0000133BB65BB6D092BE8DD334B1B68322B48
:1015D0004FD1314B22221A6000BF2F4BDB6F03F03B
:1015E0000103002BF9D100237B650AE07B6D9B0092
:1015F00007F160021344FF2243F8382C7B6D01335E
:101600007B657B6D092BF1DD244B0122C3F8982308
:10161000224B40F20112C3F8A0231F4B33221A6061
:1016200000BF1D4BDB6F03F00103002BF9D100BF9E
:101630001A4BD3F8C83203F00103002BF8D0002373
:101640003B6513E03B6D9B0007F16002134453F8C8
:10165000603C114ADBB2136000BF0F4BDB6F03F03D
:101660000103002BF9D13B6D01333B653B6D092B29
:10167000E8DD094B084A1B68136000BF064BDB6FAF
:1016800003F00103002BF9D145E700BF00ED00E0B6
:101690000010000100F0014000600140000800401F
:1016A000000C00C080B400AF00BFBD465DF8047BF5
:1016B000704780B400AF00BFBD465DF8047B704743
:1016C00080B400AF00BFBD465DF8047B704780B4B6
:1016D00000AF00BFBD465DF8047B704780B400AF2B
:1016E00000BFBD465DF8047B704780B400AF00BF0B
:1016F000BD465DF8047B704780B400AF00BFBD46B7
:101700005DF8047B704780B400AF00BFBD465DF854
:10171000047B704780B400AF00BFBD465DF8047B1A
:10172000704780B400AF00BFBD465DF8047B7047D2
:1017300080B400AF00BFBD465DF8047B704780B445
:1017400000AF00BFBD465DF8047B704780B400AFBA
:1017500000BFBD465DF8047B704780B400AF00BF9A
:10176000BD465DF8047B704780B400AF00BFBD4646
:101770005DF8047B704780B400AF00BFBD465DF8E4
:10178000047B704780B400AF00BFBD465DF8047BAA
:10179000704780B400AF00BFBD465DF8047B704762
:1017A00080B400AF00BFBD465DF8047B704780B4D5
:1017B00000AF00BFBD465DF8047B704780B400AF4A
:1017C00000BFBD465DF8047B704780B400AF00BF2A
:1017D000BD465DF8047B704780B400AF00BFBD46D6
:1017E0005DF8047B704780B400AF00BFBD465DF874
:1017F000047B704780B400AF00BFBD465DF8047B3A
:10180000704780B400AF00BFBD465DF8047B7047F1
:1018100080B400AF00BFBD465DF8047B704780B464
:1018200000AF00BFBD465DF8047B704780B400AFD9
:1018300000BFBD465DF8047B704780B400AF00BFB9
:10184000BD465DF8047B704780B400AF00BFBD4665
:101850005DF8047B704780B400AF00BFBD465DF803
:10186000047B704780B400AF00BFBD465DF8047BC9
:10187000704780B400AF00BFBD465DF8047B704781
:1018800080B400AF00BFBD465DF8047B704780B4F4
:1018900000AF00BFBD465DF8047B704780B400AF69
:1018A00000BFBD465DF8047B704780B400AF00BF49
:1018B000BD465DF8047B704780B400AF00BFBD46F5
:1018C0005DF8047B704780B400AF00BFBD465DF893
:1018D000047B704780B400AF00BFBD465DF8047B59
:1018E000704780B400AF00BFBD465DF8047B704711
:1018F00080B400AF00BFBD465DF8047B704780B484
:1019000000AF00BFBD465DF8047B704780B485B072
:1019100000AF7860374B5B68364A43F480135360FE
:101920007B68354A934211D1324B5B68314A43F0B0
:10193000010353602F4BDB682E4A43F00103D36051
:101940002E4B1B682D4A23F00F0313607B682C4A33
:10195000934211D1274B5B68264A43F0040353603E
:10196000244BDB68234A43F00403D360234BDB683A
:10197000224A23F07063D3607B68224A934211D1DC
:101980001C4B5B681B4A43F002035360194BDB6836
:10199000184A43F00203D360184B5B68174A43F0C0
:1019A000706353607B68DB6843F080027B68DA60B9
:1019B000104B1B6B4FF47A7202FB03F3FB60FB6866
:1019C0001B0903F56143104AA2FB03231B0CBB60F8
:1019D000BB68DAB27B681A60BB681B0ADAB27B6844
:1019E0005A607B680322DA6000BF1437BD465DF899
:1019F000047B704700F001400060014080D101404D
:0C1A00000040044000700140C5B3A291FA
:0400000501001000E6
:00000001FF
