:020000040100F9
:1010000000000120011400010000000000000000A9
:1010100000000000000000000000000000000000D0
:1010200000000000000000000000000000000000C0
:101030000000000000000000000000004D1600014C
:101040005B16000169160001771600018516000184
:1010500093160001A1160001AF160001BD16000194
:10106000CB160001D9160001E7160001F5160001A4
:1010700003170001111700011F1700012D170001B0
:101080003B170001491700015717000165170001C0
:1010900073170001811700018F1700019D170001D0
:1010A000AB170001B9170001C7170001D5170001E0
:1010B00000000000E3170001000000000000000035
:1010C000F1170001FF170001000000000D180001DA
:1010D0001B180001291800013718000145180001EC
:1010E000531800010000000061180001000000001A
:1010F00000000000000000006F1800017D180001D2
:10110000000000008B18000199180001A7180001C9
:1011100000000000000000000000000000000000CF
:1011200000000000000000000000000000000000BF
:1011300000000000000000000000000000000000AF
:10114000000000000000000000000000000000009F
:1014000080B582B000AF184B7B60184B3B607A68A8
:101410003B689A420ED009E07B681A683B681A6004
:101420007B6804337B603B6804333B603B68104A55
:101430009342F1D30F4B3B6005E03B6800221A60FA
:101440003B6804333B603B680B4A9342F5D30B4B3C
:101450001A680A490A4B13430B6000F013F800BFE7
:101460000837BD4680BD00BFEE1900010000002016
:1014700000000020000000200000002000F00140DB
:101480005A390F2080B58AB000AF00237B6207E095
:101490003A467B6A134400221A707B6A01337B62EE
:1014A0007B6A092BF4DD614B614A9A60614B9B6852
:1014B000604A43F0005393605F4800F0FBF95F48D7
:1014C00000F0F8F95D4B01221A6000BF5B4BDB6F47
:1014D00003F00103002BF9D1574800F06BFA584B89
:1014E0004FF48852C3F8A023554B0022C3F8A02321
:1014F000534B0122C3F83823514B0122C3F8402338
:101500004F4B0122C3F848234D4B0122C3F850230F
:101510004B4B0122C3F85823484B01221A6000BFED
:10152000464BDB6F03F00103002BF9D1444B424AD9
:101530001A60434A3B4693603E4B9B6B23F01F036C
:101540003C4A43F0030393633D4B3E4A9A613C4B54
:101550000A22DA613A4B3C4A1A64394B0122C3F839
:101560009823374B40F20112C3F8A023334B0122DA
:101570001A6000BF314BDB6F03F00103002BF9D180
:101580002E4B5B6903F00103002BF9D02B4B1B683A
:10159000312B15D100233B620FE03A463B6A1344DE
:1015A0001A78264B1A6000BF244BDB6F03F001034F
:1015B000002BF9D13B6A01333B623B6A092BECDD1E
:1015C0001E4B1B68332B24D10023FB6108E007F17D
:1015D0000C02FB691344CC221A70FB690133FB61D6
:1015E000FB69092BF3DD0023BB610FE03A46BB69C1
:1015F00013441A78114B1A6000BF104BDB6F03F0D5
:101600000103002BF9D1BB690133BB61BB69092B15
:10161000ECDD0A4B094A1B68136000BF074BDB6F08
:1016200003F00103002BF9D1AAE700BF00ED00E0B1
:101630000010000100F00140006001400070014016
:101640000008004000062000000400C080B400AF85
:1016500000BFBD465DF8047B704780B400AF00BF9B
:10166000BD465DF8047B704780B400AF00BFBD4647
:101670005DF8047B704780B400AF00BFBD465DF8E5
:10168000047B704780B400AF00BFBD465DF8047BAB
:10169000704780B400AF00BFBD465DF8047B704763
:1016A00080B400AF00BFBD465DF8047B704780B4D6
:1016B00000AF00BFBD465DF8047B704780B400AF4B
:1016C00000BFBD465DF8047B704780B400AF00BF2B
:1016D000BD465DF8047B704780B400AF00BFBD46D7
:1016E0005DF8047B704780B400AF00BFBD465DF875
:1016F000047B704780B400AF00BFBD465DF8047B3B
:10170000704780B400AF00BFBD465DF8047B7047F2
:1017100080B400AF00BFBD465DF8047B704780B465
:1017200000AF00BFBD465DF8047B704780B400AFDA
:1017300000BFBD465DF8047B704780B400AF00BFBA
:10174000BD465DF8047B704780B400AF00BFBD4666
:101750005DF8047B704780B400AF00BFBD465DF804
:10176000047B704780B400AF00BFBD465DF8047BCA
:10177000704780B400AF00BFBD465DF8047B704782
:1017800080B400AF00BFBD465DF8047B704780B4F5
:1017900000AF00BFBD465DF8047B704780B400AF6A
:1017A00000BFBD465DF8047B704780B400AF00BF4A
:1017B000BD465DF8047B704780B400AF00BFBD46F6
:1017C0005DF8047B704780B400AF00BFBD465DF894
:1017D000047B704780B400AF00BFBD465DF8047B5A
:1017E000704780B400AF00BFBD465DF8047B704712
:1017F00080B400AF00BFBD465DF8047B704780B485
:1018000000AF00BFBD465DF8047B704780B400AFF9
:1018100000BFBD465DF8047B704780B400AF00BFD9
:10182000BD465DF8047B704780B400AF00BFBD4685
:101830005DF8047B704780B400AF00BFBD465DF823
:10184000047B704780B400AF00BFBD465DF8047BE9
:10185000704780B400AF00BFBD465DF8047B7047A1
:1018600080B400AF00BFBD465DF8047B704780B414
:1018700000AF00BFBD465DF8047B704780B400AF89
:1018800000BFBD465DF8047B704780B400AF00BF69
:10189000BD465DF8047B704780B400AF00BFBD4615
:1018A0005DF8047B704780B400AF00BFBD465DF8B3
:1018B000047B704780B485B000AF7860374B5B68BD
:1018C000364A43F4801353607B68354A934211D102
:1018D000324B5B68314A43F0010353602F4BDB68A6
:1018E0002E4A43F00103D3602E4B1B682D4A23F090
:1018F0000F0313607B682C4A934211D1274B5B681E
:10190000264A43F004035360244BDB68234A43F028
:101910000403D360234BDB68224A23F07063D36057
:101920007B68224A934211D11C4B5B681B4A43F0EF
:1019300002035360194BDB68184A43F00203D3607B
:10194000184B5B68174A43F0706353607B68DB6831
:1019500043F080027B68DA60104B1B6B4FF47A72A5
:1019600002FB03F3FB60FB681B0903F56143104AAC
:10197000A2FB03231B0CBB60BB68DAB27B681A6056
:10198000BB681B0ADAB27B685A607B680322DA60A4
:1019900000BF1437BD465DF8047B704700F001407E
:1019A0000060014080D101400040044000700140CF
:1019B000C5B3A29180B483B000AF786000BF7B68EC
:1019C000DB6F03F00103002BF9D17B68DB6823F0A8
:1019D00080027B68DA607B6800225A607B68B122F3
:0E19E0009A6000BF0C37BD465DF8047B70476F
:0400000501001000E6
:00000001FF
