:020000040100F9
:1010000000000120011400010000000000000000A9
:1010100000000000000000000000000000000000D0
:1010200000000000000000000000000000000000C0
:101030000000000000000000000000000117000197
:101040000F1700011D1700012B17000139170001B0
:1010500047170001551700016317000171170001C0
:101060007F1700018D1700019B170001A9170001D0
:10107000B7170001C5170001D3170001E1170001E0
:10108000EF170001FD1700010B18000119180001EE
:1010900027180001351800014318000151180001FC
:1010A0005F1800016D1800017B180001891800010C
:1010B0000000000097180001000000000000000080
:1010C000A5180001B318000100000000C1180001BC
:1010D000CF180001DD180001EB180001F91800011C
:1010E00007190001000000001519000100000000B0
:1010F0000000000000000000231900013119000168
:10110000000000003F1900014D1900015B190001AA
:1011100000000000000000000000000000000000CF
:1011200000000000000000000000000000000000BF
:1011300000000000000000000000000000000000AF
:10114000000000000000000000000000000000009F
:1014000080B582B000AF184B7B60184B3B607A68A8
:101410003B689A420ED009E07B681A683B681A6004
:101420007B6804337B603B6804333B603B68104A55
:101430009342F1D30F4B3B6005E03B6800221A60FA
:101440003B6804333B603B680B4A9342F5D30B4B3C
:101450001A680A490A4B13430B6000F013F800BFE7
:101460000837BD4680BD00BF681A0001000000209B
:1014700000000020000000200000002000F00140DB
:101480005A390F2080B59AB000AF974B974A9A60AF
:10149000974B9B68964A43F000539360954800F041
:1014A00063FA954B4FF48852C3F8A023924B002265
:1014B000C3F8A023904B0122C3F838238E4B01229E
:1014C000C3F840238C4B0122C3F848238A4B0122E6
:1014D000C3F85023884B0122C3F85823864A07F1EA
:1014E00028031360844A3B469360834B24229A610D
:1014F000814B0A22DA61804B804A1A647E4B0422B7
:101500005A647C4B01221A6000BF7A4BDB6F03F0F8
:101510000103002BF9D1774B5B6903F00103002B2A
:10152000F9D0744B1B68312B4FD1724B22221A60B9
:1015300000BF704BDB6F03F00103002BF9D10023D8
:101540007B660AE07A6E7B6E9B0007F168010B44B4
:1015500043F8402C7B6E01337B667B6E092BF1DDFB
:10156000654B0122C3F89823634B40F20112C3F884
:10157000A023604B33221A6000BF5E4BDB6F03F089
:101580000103002BF9D100BF5B4BD3F8C83203F045
:101590000103002BF8D000233B6613E03B6E9B0059
:1015A00007F16802134453F8683C524ADBB21360F7
:1015B00000BF504BDB6F03F00103002BF9D13B6EF2
:1015C00001333B663B6E092BE8DD4A4B1B68322B2F
:1015D0004FD1484B22221A6000BF464BDB6F03F00D
:1015E0000103002BF9D10023FB650AE0FB6D9B0092
:1015F00007F168021344FF2243F8402CFB6D0133CE
:10160000FB65FB6D092BF1DD3B4B0122C3F89823F1
:10161000394B40F20112C3F8A023364B33221A6033
:1016200000BF344BDB6F03F00103002BF9D100BF87
:10163000314BD3F8C83203F00103002BF8D000235C
:10164000BB6513E0BB6D9B0007F16802134453F8C0
:10165000683C284ADBB2136000BF264BDB6F03F007
:101660000103002BF9D1BB6D0133BB65BB6D092BA9
:10167000E8DD204B1B68332B2AD100237B650AE071
:101680007B6D9B0007F168021344CC2243F8402C89
:101690007B6D01337B657B6D092BF1DD00233B65A1
:1016A00013E03B6D9B0007F16802134453F8683C5C
:1016B000104ADBB2136000BF0E4BDB6F03F0010377
:1016C000002BF9D13B6D01333B653B6D092BE8DD08
:1016D000084B084A1B68136000BF064BDB6F03F022
:1016E0000103002BF9D116E700ED00E00010000126
:1016F00000F001400060014000080040000C00C004
:1017000080B400AF00BFBD465DF8047B704780B475
:1017100000AF00BFBD465DF8047B704780B400AFEA
:1017200000BFBD465DF8047B704780B400AF00BFCA
:10173000BD465DF8047B704780B400AF00BFBD4676
:101740005DF8047B704780B400AF00BFBD465DF814
:10175000047B704780B400AF00BFBD465DF8047BDA
:10176000704780B400AF00BFBD465DF8047B704792
:1017700080B400AF00BFBD465DF8047B704780B405
:1017800000AF00BFBD465DF8047B704780B400AF7A
:1017900000BFBD465DF8047B704780B400AF00BF5A
:1017A000BD465DF8047B704780B400AF00BFBD4606
:1017B0005DF8047B704780B400AF00BFBD465DF8A4
:1017C000047B704780B400AF00BFBD465DF8047B6A
:1017D000704780B400AF00BFBD465DF8047B704722
:1017E00080B400AF00BFBD465DF8047B704780B495
:1017F00000AF00BFBD465DF8047B704780B400AF0A
:1018000000BFBD465DF8047B704780B400AF00BFE9
:10181000BD465DF8047B704780B400AF00BFBD4695
:101820005DF8047B704780B400AF00BFBD465DF833
:10183000047B704780B400AF00BFBD465DF8047BF9
:10184000704780B400AF00BFBD465DF8047B7047B1
:1018500080B400AF00BFBD465DF8047B704780B424
:1018600000AF00BFBD465DF8047B704780B400AF99
:1018700000BFBD465DF8047B704780B400AF00BF79
:10188000BD465DF8047B704780B400AF00BFBD4625
:101890005DF8047B704780B400AF00BFBD465DF8C3
:1018A000047B704780B400AF00BFBD465DF8047B89
:1018B000704780B400AF00BFBD465DF8047B704741
:1018C00080B400AF00BFBD465DF8047B704780B4B4
:1018D00000AF00BFBD465DF8047B704780B400AF29
:1018E00000BFBD465DF8047B704780B400AF00BF09
:1018F000BD465DF8047B704780B400AF00BFBD46B5
:101900005DF8047B704780B400AF00BFBD465DF852
:10191000047B704780B400AF00BFBD465DF8047B18
:10192000704780B400AF00BFBD465DF8047B7047D0
:1019300080B400AF00BFBD465DF8047B704780B443
:1019400000AF00BFBD465DF8047B704780B400AFB8
:1019500000BFBD465DF8047B704780B400AF00BF98
:10196000BD465DF8047B704780B485B000AF7860F9
:10197000374B5B68364A43F4801353607B68354AC3
:10198000934211D1324B5B68314A43F001035360FB
:101990002F4BDB682E4A43F00103D3602E4B1B68AC
:1019A0002D4A23F00F0313607B682C4A934211D118
:1019B000274B5B68264A43F004035360244BDB68E3
:1019C000234A43F00403D360234BDB68224A23F00D
:1019D0007063D3607B68224A934211D11C4B5B68D1
:1019E0001B4A43F002035360194BDB68184A43F06B
:1019F0000203D360184B5B68174A43F0706353606F
:101A00007B68DB6843F080027B68DA60104B1B6BFD
:101A10004FF47A7202FB03F3FB60FB681B0903F5CA
:101A20006143104AA2FB03231B0CBB60BB68DAB204
:101A30007B681A60BB681B0ADAB27B685A607B68F5
:101A40000322DA6000BF1437BD465DF8047B70479F
:101A500000F001400060014080D10140004004409E
:081A600000700140C5B3A29122
:0400000501001000E6
:00000001FF
